{
  "_format": "hh-sol-artifact-1",
  "contractName": "Bank",
  "sourceName": "contracts/Bank.sol",
  "abi": [
    {
      "anonymous": false,
      "inputs": [
        {
          "indexed": true,
          "internalType": "address",
          "name": "account",
          "type": "address"
        },
        {
          "indexed": false,
          "internalType": "uint256",
          "name": "amount",
          "type": "uint256"
        }
      ],
      "name": "etherDeposited",
      "type": "event"
    },
    {
      "anonymous": false,
      "inputs": [
        {
          "indexed": true,
          "internalType": "address",
          "name": "account",
          "type": "address"
        },
        {
          "indexed": false,
          "internalType": "uint256",
          "name": "amount",
          "type": "uint256"
        }
      ],
      "name": "etherWithdrawed",
      "type": "event"
    },
    {
      "inputs": [],
      "name": "deposit",
      "outputs": [],
      "stateMutability": "payable",
      "type": "function"
    },
    {
      "inputs": [],
      "name": "getBalanceOfUser",
      "outputs": [
        {
          "internalType": "uint256",
          "name": "",
          "type": "uint256"
        }
      ],
      "stateMutability": "view",
      "type": "function"
    },
    {
      "inputs": [
        {
          "internalType": "uint256",
          "name": "_amount",
          "type": "uint256"
        }
      ],
      "name": "withdraw",
      "outputs": [],
      "stateMutability": "nonpayable",
      "type": "function"
    }
  ],
  "bytecode": "0x608060405234801561001057600080fd5b50610353806100206000396000f3fe6080604052600436106100345760003560e01c80632e1a7d4d1461003957806379982de41461005b578063d0e30db01461008a575b600080fd5b34801561004557600080fd5b506100596100543660046102a9565b610092565b005b34801561006757600080fd5b503360009081526020819052604090205460405190815260200160405180910390f35b6100596101eb565b336000908152602081905260409020548111156100f65760405162461bcd60e51b815260206004820152601060248201527f4e6f7420656e6f7567682066756e64730000000000000000000000000000000060448201526064015b60405180910390fd5b33600090815260208190526040812080548392906101159084906102f1565b9091555050604051600090339083908381818185875af1925050503d806000811461015c576040519150601f19603f3d011682016040523d82523d6000602084013e610161565b606091505b50509050806101b25760405162461bcd60e51b815260206004820152601060248201527f416e206572726f72206f6363757265640000000000000000000000000000000060448201526064016100ed565b60405182815233907f47ed555d8b6242a89fcdab94795dc91c98a0e46db88f4a2b2bda3371956fd0d09060200160405180910390a25050565b6000341161023b5760405162461bcd60e51b815260206004820152601a60248201527f4e6f7420656e6f7567682066756e6473206465706f736974656400000000000060448201526064016100ed565b336000908152602081905260408120805434929061025a90849061030a565b909155505033600081815260208181526040918290204260019091015590513481527f4de483450f36dd8489373cf9166b2260f09ae72422d836e12fd9565cec1cb91e910160405180910390a2565b6000602082840312156102bb57600080fd5b5035919050565b7f4e487b7100000000000000000000000000000000000000000000000000000000600052601160045260246000fd5b81810381811115610304576103046102c2565b92915050565b80820180821115610304576103046102c256fea26469706673582212201bba0ec56a0dc2f49742de9f134cb8b7fa772dbd1835fc5c9d634f4ae22ae9b164736f6c63430008160033",
  "linkReferences": {},
  "deployedLinkReferences": {}
}